:10000000710A200020002000200020002000200095
:10001000200020007700770077002E00700061003C
:1000200063006800690073006C006F007500730066
:1000300061002E0063006F006D0020002000420070
:1000400079006500200020003A0029006D002C0096
:10005000FF0CEC010307ED0103076D0A030C2B00F5
:10006000DF0C3409280A6B002A00E70CEA016B0256
:10007000FC0C03073F0AEA0103063B0AEA01000001
:10008000EB033B0A0A06440A2A07480A0000480A0A
:1000900000086F006E00100C30004B036E036F03FE
:1000A0000C02AE000D020307CD03AF0003065F0A8A
:1000B0000C02EE010D020306CD03EF0103046A03F7
:1000C0006B03F0024D0A6D0A2E00AE026A0A0304A9
:1000D0002B032A03EE02670A6D0AC404A40400007D
:1000E00000086400FF0C27002900030C2D00E80C19
:1000F00063002709800C290002000F0C37001E0C3A
:1001000039000F0C3B00760078007A001E043E0593
:100110005E057E049E05BE047D007D0C3C003F0C08
:10012000270006000606FE050607FE040A0C63000B
:1001300026096800A304FE079E0A08050602880136
:10014000010EA3044306A60A6300920AA304FE0755
:10015000B00ADE04370CA4053000A404A304B30ADB
:10016000DE05A4057000A4040F0CA4055001A4042E
:10017000350040006606010C3F00080C2700060011
:10018000A40510022600A4043F0C27000600A304C7
:100190005E07D70A6800A304DE07CF0A0805060237
:1001A0008801010EA3044307D70AA304FB0B6800D0
:1001B000A304DE07DC0A280506028801020EA30458
:1001C0004307E40AA305620AA3043E07F40A680091
:1001D000A304DE07EC0A480506028801040EA30406
:1001E0004307F40AA3054A0BA3046606F80A9E0413
:1001F000A3041E06FD0A6300C30AA3049E07020BA4
:10020000A3040F0B1F0266069F00A30443070A0BFB
:100210006300C30A0B0C2D00B80C630027097300A0
:1002200072001D029300A30403071E0BA3044307DF
:10023000300B1C029200A3040306300B060255018A
:10024000340014029500A3044306280B6300C30A7C
:10025000010C63002609B2024306B3026300110BCE
:10026000A3049E06430B1F0266069F00A3044306D9
:10027000430B1F0266069F00A3044307410B630064
:10028000C30A6300390BA304BE06490B7400A30420
:10029000530B6B0001022A006D00060C2C0063005A
:1002A00049090E0234001402A30443075F0B040C37
:1002B000A4053200210C3100A404A3049E0B010C00
:1002C0009400A30443076C0B020CA4053200410CFC
:1002D0003100A404A3049E0B020C9400A304430762
:1002E000790B040CA4053200120C3100A404A30401
:1002F0009E0B030C9400A3044307860B010CA4057A
:100300003200420C3100A404A3049E0B040C9400A0
:10031000A3044307930B020CA4053200140C310014
:10032000A404A3049E0B050C9400A30443079D0B97
:10033000010CA4053200240C3100A4047100030C4C
:100340009100A3040306F90B380C270006000F0CDC
:10035000A4055101A4043400A40512022B001102CB
:100360002A00040CA404630064090B02A4053200F3
:100370000A023100A304A404DE06C20B1402A60084
:10038000A304C40B14022601140C63002609A30461
:10039000DE06CE0B14022601A304D00B1402A60025
:1003A0003F0C27000600730072001D029300A30497
:1003B0000307E20BA3044307F60B1C029200A304FD
:1003C0000306F60B06025501340014029500A3043F
:1003D0004306EC0B6300C30A0F0C2B00880C630070
:1003E0003409B2024306B3026300D50BB1026300C5
:1003F0009F0B6300C30A71005B0C9100A305030609
:10040000140A0A0C630026096800A305FE07090AFE
:10041000080506028801010EA3054307110A6300BF
:10042000C30AB1026300FC0B6800A305DE07190ACA
:10043000280506028801020EA3054307310A140CA1
:10044000630026096800A305DE07270A28050602BF
:100450008801020EA3054307310A5E041E046300EF
:10046000C30A6800A305DE07360A480506028801AC
:10047000040EA30543074E0A140C63002609680006
:10048000A305DE07440A480506028801040EA305F9
:1004900043074E0A200CBE016300C30A0A0C630026
:1004A00026096800A305DE07560A0805060288012A
:1004B000010EA30543075E0AA305140A010CBE0141
:1004C0006300C30A7E0471005B0C9100A305030660
:1004D0007C0A0A0C630026096800A305FE07710A5E
:1004E000280506028801020EA3054307790A630066
:1004F000C30AB102A305640A6800A305DE07810AE6
:10050000480506028801040EA3054307AA0A050C44
:1005100063002609190CBC00000C0307010CBD0088
:100520001D02A30543079C0A4B0C9C00A305030670
:100530009C0A7D004B0C3C007E056800A305DE078D
:10054000A20A480506028801040EA3054307AA0A69
:10055000A3059D0A6800A305DE07AF0A0805060289
:100560008801010EA3054307CA0A050C630026098A
:10057000190CFC010306BD027E056800A305DE0719
:10058000C20A080506028801010EA3054307CA0A2C
:10059000A305BD0A6800A305DE07CF0A28050602E9
:1005A0008801020EA3054307D70AA3057C0AA30509
:1005B0007E07DC0A6300C30AA3053E06E10A630066
:1005C000C30A380C27000600870C29000200030C20
:1005D000630026096800A305FE07EF0A88050602E6
:1005E0008801100EA3054307F70AA305EA0A610074
:1005F0000102370017028100A3050306000BB602B3
:100600006800A305FE07050BA80506028801200E59
:10061000A30543070D0BA305F80A61000102390089
:1006200019028100A3050306160BB8026800A30592
:10063000DE071B0B880506028801100EA305430781
:10064000230BA3050E0B610001023B001B0281007E
:10065000A30503062C0BBA026800A305DE07310BC5
:10066000A80506028801200EA3054307390BA30540
:10067000240B03043703030437030304390303047F
:10068000390303043B0303043B03800C29000200ED
:100690006300C30A71005B0C9100A3050306630BA2
:1006A0000A0C630026096800A305FE07580B4805DD
:1006B00006028801040EA3054307600B6300C30A0A
:1006C000B102A3054B0B6800A305DE07680B2805E4
:1006D00006028801020EA30543077F0B0A0C630084
:1006E00026096800A305DE07760B280506028801A7
:1006F000020EA30543077F0B3E046300C30A050CEB
:10070000630026096800A305DE07870B480506027B
:100710008801040EA30543078F0BA305630BA405F3
:10072000100226000F0C27000600A4047100360CEE
:100730009100A3050306D80B8605DE078604160282
:100740002D006C0003042D032C032D032C030C023D
:1007500063002709170263002609A605DE07A60421
:1007600018022D006C0003042D032C032D032C0311
:100770000C02630027091902630026098605FE079B
:1007800086041A022D006C0003042D032C032D0394
:100790002C030C02630027091B0263002609A6052F
:1007A000FE07A604320C63002609B102A305970BCD
:0407B0006300C30A15
:0207FE000000F9
:021FFE00EA0FE8
:00000001FF
